{
	"data": {
		"bytecode": {
			"linkReferences": {},
			"object": "60806040525f600655348015610013575f80fd5b506040516111d33803806111d3833981810160405281019061003591906102df565b335f806101000a81548173ffffffffffffffffffffffffffffffffffffffff021916908373ffffffffffffffffffffffffffffffffffffffff16021790555084600190816100839190610592565b5083600281905550620151808361009a919061068e565b426100a591906106cf565b60038190555081600490816100ba9190610592565b508060055f6101000a81548173ffffffffffffffffffffffffffffffffffffffff021916908373ffffffffffffffffffffffffffffffffffffffff1602179055505050505050610702565b5f604051905090565b5f80fd5b5f80fd5b5f80fd5b5f80fd5b5f601f19601f8301169050919050565b7f4e487b71000000000000000000000000000000000000000000000000000000005f52604160045260245ffd5b6101648261011e565b810181811067ffffffffffffffff821117156101835761018261012e565b5b80604052505050565b5f610195610105565b90506101a1828261015b565b919050565b5f67ffffffffffffffff8211156101c0576101bf61012e565b5b6101c98261011e565b9050602081019050919050565b8281835e5f83830152505050565b5f6101f66101f1846101a6565b61018c565b9050828152602081018484840111156102125761021161011a565b5b61021d8482856101d6565b509392505050565b5f82601f83011261023957610238610116565b5b81516102498482602086016101e4565b91505092915050565b5f819050919050565b61026481610252565b811461026e575f80fd5b50565b5f8151905061027f8161025b565b92915050565b5f73ffffffffffffffffffffffffffffffffffffffff82169050919050565b5f6102ae82610285565b9050919050565b6102be816102a4565b81146102c8575f80fd5b50565b5f815190506102d9816102b5565b92915050565b5f805f805f60a086880312156102f8576102f761010e565b5b5f86015167ffffffffffffffff81111561031557610314610112565b5b61032188828901610225565b955050602061033288828901610271565b945050604061034388828901610271565b935050606086015167ffffffffffffffff81111561036457610363610112565b5b61037088828901610225565b9250506080610381888289016102cb565b9150509295509295909350565b5f81519050919050565b7f4e487b71000000000000000000000000000000000000000000000000000000005f52602260045260245ffd5b5f60028204905060018216806103dc57607f821691505b6020821081036103ef576103ee610398565b5b50919050565b5f819050815f5260205f209050919050565b5f6020601f8301049050919050565b5f82821b905092915050565b5f600883026104517fffffffffffffffffffffffffffffffffffffffffffffffffffffffffffffffff82610416565b61045b8683610416565b95508019841693508086168417925050509392505050565b5f819050919050565b5f61049661049161048c84610252565b610473565b610252565b9050919050565b5f819050919050565b6104af8361047c565b6104c36104bb8261049d565b848454610422565b825550505050565b5f90565b6104d76104cb565b6104e28184846104a6565b505050565b5b81811015610505576104fa5f826104cf565b6001810190506104e8565b5050565b601f82111561054a5761051b816103f5565b61052484610407565b81016020851015610533578190505b61054761053f85610407565b8301826104e7565b50505b505050565b5f82821c905092915050565b5f61056a5f198460080261054f565b1980831691505092915050565b5f610582838361055b565b9150826002028217905092915050565b61059b8261038e565b67ffffffffffffffff8111156105b4576105b361012e565b5b6105be82546103c5565b6105c9828285610509565b5f60209050601f8311600181146105fa575f84156105e8578287015190505b6105f28582610577565b865550610659565b601f198416610608866103f5565b5f5b8281101561062f5784890151825560018201915060208501945060208101905061060a565b8683101561064c5784890151610648601f89168261055b565b8355505b6001600288020188555050505b505050505050565b7f4e487b71000000000000000000000000000000000000000000000000000000005f52601160045260245ffd5b5f61069882610252565b91506106a383610252565b92508282026106b181610252565b915082820484148315176106c8576106c7610661565b5b5092915050565b5f6106d982610252565b91506106e483610252565b92508282019050808211156106fc576106fb610661565b5b92915050565b610ac48061070f5f395ff3fe608060405260043610610090575f3560e01c8063953b8fb811610058578063953b8fb814610166578063c59ee1dc14610190578063cc6cb19a146101ba578063ed88c68e146101f6578063ffdd5cf11461020057610090565b806306fdde031461009457806338af3eed146100be5780635958611e146100e85780637284e416146101125780638da5cb5b1461013c575b5f80fd5b34801561009f575f80fd5b506100a861023c565b6040516100b591906106b5565b60405180910390f35b3480156100c9575f80fd5b506100d26102c8565b6040516100df9190610714565b60405180910390f35b3480156100f3575f80fd5b506100fc6102ed565b6040516101099190610745565b60405180910390f35b34801561011d575f80fd5b506101266102f3565b60405161013391906106b5565b60405180910390f35b348015610147575f80fd5b5061015061037f565b60405161015d919061077e565b60405180910390f35b348015610171575f80fd5b5061017a6103a2565b6040516101879190610745565b60405180910390f35b34801561019b575f80fd5b506101a46103a8565b6040516101b19190610745565b60405180910390f35b3480156101c5575f80fd5b506101e060048036038101906101db91906107c5565b6103ae565b6040516101ed9190610745565b60405180910390f35b6101fe6103c3565b005b34801561020b575f80fd5b50610226600480360381019061022191906107c5565b610580565b6040516102339190610745565b60405180910390f35b600180546102499061081d565b80601f01602080910402602001604051908101604052809291908181526020018280546102759061081d565b80156102c05780601f10610297576101008083540402835291602001916102c0565b820191905f5260205f20905b8154815290600101906020018083116102a357829003601f168201915b505050505081565b60055f9054906101000a900473ffffffffffffffffffffffffffffffffffffffff1681565b60035481565b600480546103009061081d565b80601f016020809104026020016040519081016040528092919081815260200182805461032c9061081d565b80156103775780601f1061034e57610100808354040283529160200191610377565b820191905f5260205f20905b81548152906001019060200180831161035a57829003601f168201915b505050505081565b5f8054906101000a900473ffffffffffffffffffffffffffffffffffffffff1681565b60025481565b60065481565b6007602052805f5260405f205f915090505481565b6003544210610407576040517f08c379a00000000000000000000000000000000000000000000000000000000081526004016103fe90610897565b60405180910390fd5b5f3411610449576040517f08c379a0000000000000000000000000000000000000000000000000000000008152600401610440906108ff565b60405180910390fd5b5f60055f9054906101000a900473ffffffffffffffffffffffffffffffffffffffff1673ffffffffffffffffffffffffffffffffffffffff163460405161048f9061094a565b5f6040518083038185875af1925050503d805f81146104c9576040519150601f19603f3d011682016040523d82523d5f602084013e6104ce565b606091505b5050905080610512576040517f08c379a0000000000000000000000000000000000000000000000000000000008152600401610509906109a8565b60405180910390fd5b3460075f3373ffffffffffffffffffffffffffffffffffffffff1673ffffffffffffffffffffffffffffffffffffffff1681526020019081526020015f205f82825461055e91906109f3565b925050819055503460065f82825461057691906109f3565b9250508190555050565b5f8060075f8473ffffffffffffffffffffffffffffffffffffffff1673ffffffffffffffffffffffffffffffffffffffff1681526020019081526020015f205411610600576040517f08c379a00000000000000000000000000000000000000000000000000000000081526004016105f790610a70565b60405180910390fd5b60075f8373ffffffffffffffffffffffffffffffffffffffff1673ffffffffffffffffffffffffffffffffffffffff1681526020019081526020015f20549050919050565b5f81519050919050565b5f82825260208201905092915050565b8281835e5f83830152505050565b5f601f19601f8301169050919050565b5f61068782610645565b610691818561064f565b93506106a181856020860161065f565b6106aa8161066d565b840191505092915050565b5f6020820190508181035f8301526106cd818461067d565b905092915050565b5f73ffffffffffffffffffffffffffffffffffffffff82169050919050565b5f6106fe826106d5565b9050919050565b61070e816106f4565b82525050565b5f6020820190506107275f830184610705565b92915050565b5f819050919050565b61073f8161072d565b82525050565b5f6020820190506107585f830184610736565b92915050565b5f610768826106d5565b9050919050565b6107788161075e565b82525050565b5f6020820190506107915f83018461076f565b92915050565b5f80fd5b6107a48161075e565b81146107ae575f80fd5b50565b5f813590506107bf8161079b565b92915050565b5f602082840312156107da576107d9610797565b5b5f6107e7848285016107b1565b91505092915050565b7f4e487b71000000000000000000000000000000000000000000000000000000005f52602260045260245ffd5b5f600282049050600182168061083457607f821691505b602082108103610847576108466107f0565b5b50919050565b7f546869732066756e6472616973696e67206973206f76657200000000000000005f82015250565b5f61088160188361064f565b915061088c8261084d565b602082019050919050565b5f6020820190508181035f8301526108ae81610875565b9050919050565b7f446f6e6174696f6e206d7573742062652067726561746572207468616e2030005f82015250565b5f6108e9601f8361064f565b91506108f4826108b5565b602082019050919050565b5f6020820190508181035f830152610916816108dd565b9050919050565b5f81905092915050565b50565b5f6109355f8361091d565b915061094082610927565b5f82019050919050565b5f6109548261092a565b9150819050919050565b7f4661696c656420746f2073656e64206d6f6e65790000000000000000000000005f82015250565b5f61099260148361064f565b915061099d8261095e565b602082019050919050565b5f6020820190508181035f8301526109bf81610986565b9050919050565b7f4e487b71000000000000000000000000000000000000000000000000000000005f52601160045260245ffd5b5f6109fd8261072d565b9150610a088361072d565b9250828201905080821115610a2057610a1f6109c6565b5b92915050565b7f4e6f2044617461000000000000000000000000000000000000000000000000005f82015250565b5f610a5a60078361064f565b9150610a6582610a26565b602082019050919050565b5f6020820190508181035f830152610a8781610a4e565b905091905056fea2646970667358221220d79e604767cb5eb557911cf23410050a63972341a26b8854fa938e44bce9bef064736f6c63430008190033",
			"opcodes": "PUSH1 0x80 PUSH1 0x40 MSTORE PUSH0 PUSH1 0x6 SSTORE CALLVALUE DUP1 ISZERO PUSH2 0x13 JUMPI PUSH0 DUP1 REVERT JUMPDEST POP PUSH1 0x40 MLOAD PUSH2 0x11D3 CODESIZE SUB DUP1 PUSH2 0x11D3 DUP4 CODECOPY DUP2 DUP2 ADD PUSH1 0x40 MSTORE DUP2 ADD SWAP1 PUSH2 0x35 SWAP2 SWAP1 PUSH2 0x2DF JUMP JUMPDEST CALLER PUSH0 DUP1 PUSH2 0x100 EXP DUP2 SLOAD DUP2 PUSH20 0xFFFFFFFFFFFFFFFFFFFFFFFFFFFFFFFFFFFFFFFF MUL NOT AND SWAP1 DUP4 PUSH20 0xFFFFFFFFFFFFFFFFFFFFFFFFFFFFFFFFFFFFFFFF AND MUL OR SWAP1 SSTORE POP DUP5 PUSH1 0x1 SWAP1 DUP2 PUSH2 0x83 SWAP2 SWAP1 PUSH2 0x592 JUMP JUMPDEST POP DUP4 PUSH1 0x2 DUP2 SWAP1 SSTORE POP PUSH3 0x15180 DUP4 PUSH2 0x9A SWAP2 SWAP1 PUSH2 0x68E JUMP JUMPDEST TIMESTAMP PUSH2 0xA5 SWAP2 SWAP1 PUSH2 0x6CF JUMP JUMPDEST PUSH1 0x3 DUP2 SWAP1 SSTORE POP DUP2 PUSH1 0x4 SWAP1 DUP2 PUSH2 0xBA SWAP2 SWAP1 PUSH2 0x592 JUMP JUMPDEST POP DUP1 PUSH1 0x5 PUSH0 PUSH2 0x100 EXP DUP2 SLOAD DUP2 PUSH20 0xFFFFFFFFFFFFFFFFFFFFFFFFFFFFFFFFFFFFFFFF MUL NOT AND SWAP1 DUP4 PUSH20 0xFFFFFFFFFFFFFFFFFFFFFFFFFFFFFFFFFFFFFFFF AND MUL OR SWAP1 SSTORE POP POP POP POP POP POP PUSH2 0x702 JUMP JUMPDEST PUSH0 PUSH1 0x40 MLOAD SWAP1 POP SWAP1 JUMP JUMPDEST PUSH0 DUP1 REVERT JUMPDEST PUSH0 DUP1 REVERT JUMPDEST PUSH0 DUP1 REVERT JUMPDEST PUSH0 DUP1 REVERT JUMPDEST PUSH0 PUSH1 0x1F NOT PUSH1 0x1F DUP4 ADD AND SWAP1 POP SWAP2 SWAP1 POP JUMP JUMPDEST PUSH32 0x4E487B7100000000000000000000000000000000000000000000000000000000 PUSH0 MSTORE PUSH1 0x41 PUSH1 0x4 MSTORE PUSH1 0x24 PUSH0 REVERT JUMPDEST PUSH2 0x164 DUP3 PUSH2 0x11E JUMP JUMPDEST DUP2 ADD DUP2 DUP2 LT PUSH8 0xFFFFFFFFFFFFFFFF DUP3 GT OR ISZERO PUSH2 0x183 JUMPI PUSH2 0x182 PUSH2 0x12E JUMP JUMPDEST JUMPDEST DUP1 PUSH1 0x40 MSTORE POP POP POP JUMP JUMPDEST PUSH0 PUSH2 0x195 PUSH2 0x105 JUMP JUMPDEST SWAP1 POP PUSH2 0x1A1 DUP3 DUP3 PUSH2 0x15B JUMP JUMPDEST SWAP2 SWAP1 POP JUMP JUMPDEST PUSH0 PUSH8 0xFFFFFFFFFFFFFFFF DUP3 GT ISZERO PUSH2 0x1C0 JUMPI PUSH2 0x1BF PUSH2 0x12E JUMP JUMPDEST JUMPDEST PUSH2 0x1C9 DUP3 PUSH2 0x11E JUMP JUMPDEST SWAP1 POP PUSH1 0x20 DUP2 ADD SWAP1 POP SWAP2 SWAP1 POP JUMP JUMPDEST DUP3 DUP2 DUP4 MCOPY PUSH0 DUP4 DUP4 ADD MSTORE POP POP POP JUMP JUMPDEST PUSH0 PUSH2 0x1F6 PUSH2 0x1F1 DUP5 PUSH2 0x1A6 JUMP JUMPDEST PUSH2 0x18C JUMP JUMPDEST SWAP1 POP DUP3 DUP2 MSTORE PUSH1 0x20 DUP2 ADD DUP5 DUP5 DUP5 ADD GT ISZERO PUSH2 0x212 JUMPI PUSH2 0x211 PUSH2 0x11A JUMP JUMPDEST JUMPDEST PUSH2 0x21D DUP5 DUP3 DUP6 PUSH2 0x1D6 JUMP JUMPDEST POP SWAP4 SWAP3 POP POP POP JUMP JUMPDEST PUSH0 DUP3 PUSH1 0x1F DUP4 ADD SLT PUSH2 0x239 JUMPI PUSH2 0x238 PUSH2 0x116 JUMP JUMPDEST JUMPDEST DUP2 MLOAD PUSH2 0x249 DUP5 DUP3 PUSH1 0x20 DUP7 ADD PUSH2 0x1E4 JUMP JUMPDEST SWAP2 POP POP SWAP3 SWAP2 POP POP JUMP JUMPDEST PUSH0 DUP2 SWAP1 POP SWAP2 SWAP1 POP JUMP JUMPDEST PUSH2 0x264 DUP2 PUSH2 0x252 JUMP JUMPDEST DUP2 EQ PUSH2 0x26E JUMPI PUSH0 DUP1 REVERT JUMPDEST POP JUMP JUMPDEST PUSH0 DUP2 MLOAD SWAP1 POP PUSH2 0x27F DUP2 PUSH2 0x25B JUMP JUMPDEST SWAP3 SWAP2 POP POP JUMP JUMPDEST PUSH0 PUSH20 0xFFFFFFFFFFFFFFFFFFFFFFFFFFFFFFFFFFFFFFFF DUP3 AND SWAP1 POP SWAP2 SWAP1 POP JUMP JUMPDEST PUSH0 PUSH2 0x2AE DUP3 PUSH2 0x285 JUMP JUMPDEST SWAP1 POP SWAP2 SWAP1 POP JUMP JUMPDEST PUSH2 0x2BE DUP2 PUSH2 0x2A4 JUMP JUMPDEST DUP2 EQ PUSH2 0x2C8 JUMPI PUSH0 DUP1 REVERT JUMPDEST POP JUMP JUMPDEST PUSH0 DUP2 MLOAD SWAP1 POP PUSH2 0x2D9 DUP2 PUSH2 0x2B5 JUMP JUMPDEST SWAP3 SWAP2 POP POP JUMP JUMPDEST PUSH0 DUP1 PUSH0 DUP1 PUSH0 PUSH1 0xA0 DUP7 DUP9 SUB SLT ISZERO PUSH2 0x2F8 JUMPI PUSH2 0x2F7 PUSH2 0x10E JUMP JUMPDEST JUMPDEST PUSH0 DUP7 ADD MLOAD PUSH8 0xFFFFFFFFFFFFFFFF DUP2 GT ISZERO PUSH2 0x315 JUMPI PUSH2 0x314 PUSH2 0x112 JUMP JUMPDEST JUMPDEST PUSH2 0x321 DUP9 DUP3 DUP10 ADD PUSH2 0x225 JUMP JUMPDEST SWAP6 POP POP PUSH1 0x20 PUSH2 0x332 DUP9 DUP3 DUP10 ADD PUSH2 0x271 JUMP JUMPDEST SWAP5 POP POP PUSH1 0x40 PUSH2 0x343 DUP9 DUP3 DUP10 ADD PUSH2 0x271 JUMP JUMPDEST SWAP4 POP POP PUSH1 0x60 DUP7 ADD MLOAD PUSH8 0xFFFFFFFFFFFFFFFF DUP2 GT ISZERO PUSH2 0x364 JUMPI PUSH2 0x363 PUSH2 0x112 JUMP JUMPDEST JUMPDEST PUSH2 0x370 DUP9 DUP3 DUP10 ADD PUSH2 0x225 JUMP JUMPDEST SWAP3 POP POP PUSH1 0x80 PUSH2 0x381 DUP9 DUP3 DUP10 ADD PUSH2 0x2CB JUMP JUMPDEST SWAP2 POP POP SWAP3 SWAP6 POP SWAP3 SWAP6 SWAP1 SWAP4 POP JUMP JUMPDEST PUSH0 DUP2 MLOAD SWAP1 POP SWAP2 SWAP1 POP JUMP JUMPDEST PUSH32 0x4E487B7100000000000000000000000000000000000000000000000000000000 PUSH0 MSTORE PUSH1 0x22 PUSH1 0x4 MSTORE PUSH1 0x24 PUSH0 REVERT JUMPDEST PUSH0 PUSH1 0x2 DUP3 DIV SWAP1 POP PUSH1 0x1 DUP3 AND DUP1 PUSH2 0x3DC JUMPI PUSH1 0x7F DUP3 AND SWAP2 POP JUMPDEST PUSH1 0x20 DUP3 LT DUP2 SUB PUSH2 0x3EF JUMPI PUSH2 0x3EE PUSH2 0x398 JUMP JUMPDEST JUMPDEST POP SWAP2 SWAP1 POP JUMP JUMPDEST PUSH0 DUP2 SWAP1 POP DUP2 PUSH0 MSTORE PUSH1 0x20 PUSH0 KECCAK256 SWAP1 POP SWAP2 SWAP1 POP JUMP JUMPDEST PUSH0 PUSH1 0x20 PUSH1 0x1F DUP4 ADD DIV SWAP1 POP SWAP2 SWAP1 POP JUMP JUMPDEST PUSH0 DUP3 DUP3 SHL SWAP1 POP SWAP3 SWAP2 POP POP JUMP JUMPDEST PUSH0 PUSH1 0x8 DUP4 MUL PUSH2 0x451 PUSH32 0xFFFFFFFFFFFFFFFFFFFFFFFFFFFFFFFFFFFFFFFFFFFFFFFFFFFFFFFFFFFFFFFF DUP3 PUSH2 0x416 JUMP JUMPDEST PUSH2 0x45B DUP7 DUP4 PUSH2 0x416 JUMP JUMPDEST SWAP6 POP DUP1 NOT DUP5 AND SWAP4 POP DUP1 DUP7 AND DUP5 OR SWAP3 POP POP POP SWAP4 SWAP3 POP POP POP JUMP JUMPDEST PUSH0 DUP2 SWAP1 POP SWAP2 SWAP1 POP JUMP JUMPDEST PUSH0 PUSH2 0x496 PUSH2 0x491 PUSH2 0x48C DUP5 PUSH2 0x252 JUMP JUMPDEST PUSH2 0x473 JUMP JUMPDEST PUSH2 0x252 JUMP JUMPDEST SWAP1 POP SWAP2 SWAP1 POP JUMP JUMPDEST PUSH0 DUP2 SWAP1 POP SWAP2 SWAP1 POP JUMP JUMPDEST PUSH2 0x4AF DUP4 PUSH2 0x47C JUMP JUMPDEST PUSH2 0x4C3 PUSH2 0x4BB DUP3 PUSH2 0x49D JUMP JUMPDEST DUP5 DUP5 SLOAD PUSH2 0x422 JUMP JUMPDEST DUP3 SSTORE POP POP POP POP JUMP JUMPDEST PUSH0 SWAP1 JUMP JUMPDEST PUSH2 0x4D7 PUSH2 0x4CB JUMP JUMPDEST PUSH2 0x4E2 DUP2 DUP5 DUP5 PUSH2 0x4A6 JUMP JUMPDEST POP POP POP JUMP JUMPDEST JUMPDEST DUP2 DUP2 LT ISZERO PUSH2 0x505 JUMPI PUSH2 0x4FA PUSH0 DUP3 PUSH2 0x4CF JUMP JUMPDEST PUSH1 0x1 DUP2 ADD SWAP1 POP PUSH2 0x4E8 JUMP JUMPDEST POP POP JUMP JUMPDEST PUSH1 0x1F DUP3 GT ISZERO PUSH2 0x54A JUMPI PUSH2 0x51B DUP2 PUSH2 0x3F5 JUMP JUMPDEST PUSH2 0x524 DUP5 PUSH2 0x407 JUMP JUMPDEST DUP2 ADD PUSH1 0x20 DUP6 LT ISZERO PUSH2 0x533 JUMPI DUP2 SWAP1 POP JUMPDEST PUSH2 0x547 PUSH2 0x53F DUP6 PUSH2 0x407 JUMP JUMPDEST DUP4 ADD DUP3 PUSH2 0x4E7 JUMP JUMPDEST POP POP JUMPDEST POP POP POP JUMP JUMPDEST PUSH0 DUP3 DUP3 SHR SWAP1 POP SWAP3 SWAP2 POP POP JUMP JUMPDEST PUSH0 PUSH2 0x56A PUSH0 NOT DUP5 PUSH1 0x8 MUL PUSH2 0x54F JUMP JUMPDEST NOT DUP1 DUP4 AND SWAP2 POP POP SWAP3 SWAP2 POP POP JUMP JUMPDEST PUSH0 PUSH2 0x582 DUP4 DUP4 PUSH2 0x55B JUMP JUMPDEST SWAP2 POP DUP3 PUSH1 0x2 MUL DUP3 OR SWAP1 POP SWAP3 SWAP2 POP POP JUMP JUMPDEST PUSH2 0x59B DUP3 PUSH2 0x38E JUMP JUMPDEST PUSH8 0xFFFFFFFFFFFFFFFF DUP2 GT ISZERO PUSH2 0x5B4 JUMPI PUSH2 0x5B3 PUSH2 0x12E JUMP JUMPDEST JUMPDEST PUSH2 0x5BE DUP3 SLOAD PUSH2 0x3C5 JUMP JUMPDEST PUSH2 0x5C9 DUP3 DUP3 DUP6 PUSH2 0x509 JUMP JUMPDEST PUSH0 PUSH1 0x20 SWAP1 POP PUSH1 0x1F DUP4 GT PUSH1 0x1 DUP2 EQ PUSH2 0x5FA JUMPI PUSH0 DUP5 ISZERO PUSH2 0x5E8 JUMPI DUP3 DUP8 ADD MLOAD SWAP1 POP JUMPDEST PUSH2 0x5F2 DUP6 DUP3 PUSH2 0x577 JUMP JUMPDEST DUP7 SSTORE POP PUSH2 0x659 JUMP JUMPDEST PUSH1 0x1F NOT DUP5 AND PUSH2 0x608 DUP7 PUSH2 0x3F5 JUMP JUMPDEST PUSH0 JUMPDEST DUP3 DUP2 LT ISZERO PUSH2 0x62F JUMPI DUP5 DUP10 ADD MLOAD DUP3 SSTORE PUSH1 0x1 DUP3 ADD SWAP2 POP PUSH1 0x20 DUP6 ADD SWAP5 POP PUSH1 0x20 DUP2 ADD SWAP1 POP PUSH2 0x60A JUMP JUMPDEST DUP7 DUP4 LT ISZERO PUSH2 0x64C JUMPI DUP5 DUP10 ADD MLOAD PUSH2 0x648 PUSH1 0x1F DUP10 AND DUP3 PUSH2 0x55B JUMP JUMPDEST DUP4 SSTORE POP JUMPDEST PUSH1 0x1 PUSH1 0x2 DUP9 MUL ADD DUP9 SSTORE POP POP POP JUMPDEST POP POP POP POP POP POP JUMP JUMPDEST PUSH32 0x4E487B7100000000000000000000000000000000000000000000000000000000 PUSH0 MSTORE PUSH1 0x11 PUSH1 0x4 MSTORE PUSH1 0x24 PUSH0 REVERT JUMPDEST PUSH0 PUSH2 0x698 DUP3 PUSH2 0x252 JUMP JUMPDEST SWAP2 POP PUSH2 0x6A3 DUP4 PUSH2 0x252 JUMP JUMPDEST SWAP3 POP DUP3 DUP3 MUL PUSH2 0x6B1 DUP2 PUSH2 0x252 JUMP JUMPDEST SWAP2 POP DUP3 DUP3 DIV DUP5 EQ DUP4 ISZERO OR PUSH2 0x6C8 JUMPI PUSH2 0x6C7 PUSH2 0x661 JUMP JUMPDEST JUMPDEST POP SWAP3 SWAP2 POP POP JUMP JUMPDEST PUSH0 PUSH2 0x6D9 DUP3 PUSH2 0x252 JUMP JUMPDEST SWAP2 POP PUSH2 0x6E4 DUP4 PUSH2 0x252 JUMP JUMPDEST SWAP3 POP DUP3 DUP3 ADD SWAP1 POP DUP1 DUP3 GT ISZERO PUSH2 0x6FC JUMPI PUSH2 0x6FB PUSH2 0x661 JUMP JUMPDEST JUMPDEST SWAP3 SWAP2 POP POP JUMP JUMPDEST PUSH2 0xAC4 DUP1 PUSH2 0x70F PUSH0 CODECOPY PUSH0 RETURN INVALID PUSH1 0x80 PUSH1 0x40 MSTORE PUSH1 0x4 CALLDATASIZE LT PUSH2 0x90 JUMPI PUSH0 CALLDATALOAD PUSH1 0xE0 SHR DUP1 PUSH4 0x953B8FB8 GT PUSH2 0x58 JUMPI DUP1 PUSH4 0x953B8FB8 EQ PUSH2 0x166 JUMPI DUP1 PUSH4 0xC59EE1DC EQ PUSH2 0x190 JUMPI DUP1 PUSH4 0xCC6CB19A EQ PUSH2 0x1BA JUMPI DUP1 PUSH4 0xED88C68E EQ PUSH2 0x1F6 JUMPI DUP1 PUSH4 0xFFDD5CF1 EQ PUSH2 0x200 JUMPI PUSH2 0x90 JUMP JUMPDEST DUP1 PUSH4 0x6FDDE03 EQ PUSH2 0x94 JUMPI DUP1 PUSH4 0x38AF3EED EQ PUSH2 0xBE JUMPI DUP1 PUSH4 0x5958611E EQ PUSH2 0xE8 JUMPI DUP1 PUSH4 0x7284E416 EQ PUSH2 0x112 JUMPI DUP1 PUSH4 0x8DA5CB5B EQ PUSH2 0x13C JUMPI JUMPDEST PUSH0 DUP1 REVERT JUMPDEST CALLVALUE DUP1 ISZERO PUSH2 0x9F JUMPI PUSH0 DUP1 REVERT JUMPDEST POP PUSH2 0xA8 PUSH2 0x23C JUMP JUMPDEST PUSH1 0x40 MLOAD PUSH2 0xB5 SWAP2 SWAP1 PUSH2 0x6B5 JUMP JUMPDEST PUSH1 0x40 MLOAD DUP1 SWAP2 SUB SWAP1 RETURN JUMPDEST CALLVALUE DUP1 ISZERO PUSH2 0xC9 JUMPI PUSH0 DUP1 REVERT JUMPDEST POP PUSH2 0xD2 PUSH2 0x2C8 JUMP JUMPDEST PUSH1 0x40 MLOAD PUSH2 0xDF SWAP2 SWAP1 PUSH2 0x714 JUMP JUMPDEST PUSH1 0x40 MLOAD DUP1 SWAP2 SUB SWAP1 RETURN JUMPDEST CALLVALUE DUP1 ISZERO PUSH2 0xF3 JUMPI PUSH0 DUP1 REVERT JUMPDEST POP PUSH2 0xFC PUSH2 0x2ED JUMP JUMPDEST PUSH1 0x40 MLOAD PUSH2 0x109 SWAP2 SWAP1 PUSH2 0x745 JUMP JUMPDEST PUSH1 0x40 MLOAD DUP1 SWAP2 SUB SWAP1 RETURN JUMPDEST CALLVALUE DUP1 ISZERO PUSH2 0x11D JUMPI PUSH0 DUP1 REVERT JUMPDEST POP PUSH2 0x126 PUSH2 0x2F3 JUMP JUMPDEST PUSH1 0x40 MLOAD PUSH2 0x133 SWAP2 SWAP1 PUSH2 0x6B5 JUMP JUMPDEST PUSH1 0x40 MLOAD DUP1 SWAP2 SUB SWAP1 RETURN JUMPDEST CALLVALUE DUP1 ISZERO PUSH2 0x147 JUMPI PUSH0 DUP1 REVERT JUMPDEST POP PUSH2 0x150 PUSH2 0x37F JUMP JUMPDEST PUSH1 0x40 MLOAD PUSH2 0x15D SWAP2 SWAP1 PUSH2 0x77E JUMP JUMPDEST PUSH1 0x40 MLOAD DUP1 SWAP2 SUB SWAP1 RETURN JUMPDEST CALLVALUE DUP1 ISZERO PUSH2 0x171 JUMPI PUSH0 DUP1 REVERT JUMPDEST POP PUSH2 0x17A PUSH2 0x3A2 JUMP JUMPDEST PUSH1 0x40 MLOAD PUSH2 0x187 SWAP2 SWAP1 PUSH2 0x745 JUMP JUMPDEST PUSH1 0x40 MLOAD DUP1 SWAP2 SUB SWAP1 RETURN JUMPDEST CALLVALUE DUP1 ISZERO PUSH2 0x19B JUMPI PUSH0 DUP1 REVERT JUMPDEST POP PUSH2 0x1A4 PUSH2 0x3A8 JUMP JUMPDEST PUSH1 0x40 MLOAD PUSH2 0x1B1 SWAP2 SWAP1 PUSH2 0x745 JUMP JUMPDEST PUSH1 0x40 MLOAD DUP1 SWAP2 SUB SWAP1 RETURN JUMPDEST CALLVALUE DUP1 ISZERO PUSH2 0x1C5 JUMPI PUSH0 DUP1 REVERT JUMPDEST POP PUSH2 0x1E0 PUSH1 0x4 DUP1 CALLDATASIZE SUB DUP2 ADD SWAP1 PUSH2 0x1DB SWAP2 SWAP1 PUSH2 0x7C5 JUMP JUMPDEST PUSH2 0x3AE JUMP JUMPDEST PUSH1 0x40 MLOAD PUSH2 0x1ED SWAP2 SWAP1 PUSH2 0x745 JUMP JUMPDEST PUSH1 0x40 MLOAD DUP1 SWAP2 SUB SWAP1 RETURN JUMPDEST PUSH2 0x1FE PUSH2 0x3C3 JUMP JUMPDEST STOP JUMPDEST CALLVALUE DUP1 ISZERO PUSH2 0x20B JUMPI PUSH0 DUP1 REVERT JUMPDEST POP PUSH2 0x226 PUSH1 0x4 DUP1 CALLDATASIZE SUB DUP2 ADD SWAP1 PUSH2 0x221 SWAP2 SWAP1 PUSH2 0x7C5 JUMP JUMPDEST PUSH2 0x580 JUMP JUMPDEST PUSH1 0x40 MLOAD PUSH2 0x233 SWAP2 SWAP1 PUSH2 0x745 JUMP JUMPDEST PUSH1 0x40 MLOAD DUP1 SWAP2 SUB SWAP1 RETURN JUMPDEST PUSH1 0x1 DUP1 SLOAD PUSH2 0x249 SWAP1 PUSH2 0x81D JUMP JUMPDEST DUP1 PUSH1 0x1F ADD PUSH1 0x20 DUP1 SWAP2 DIV MUL PUSH1 0x20 ADD PUSH1 0x40 MLOAD SWAP1 DUP2 ADD PUSH1 0x40 MSTORE DUP1 SWAP3 SWAP2 SWAP1 DUP2 DUP2 MSTORE PUSH1 0x20 ADD DUP3 DUP1 SLOAD PUSH2 0x275 SWAP1 PUSH2 0x81D JUMP JUMPDEST DUP1 ISZERO PUSH2 0x2C0 JUMPI DUP1 PUSH1 0x1F LT PUSH2 0x297 JUMPI PUSH2 0x100 DUP1 DUP4 SLOAD DIV MUL DUP4 MSTORE SWAP2 PUSH1 0x20 ADD SWAP2 PUSH2 0x2C0 JUMP JUMPDEST DUP3 ADD SWAP2 SWAP1 PUSH0 MSTORE PUSH1 0x20 PUSH0 KECCAK256 SWAP1 JUMPDEST DUP2 SLOAD DUP2 MSTORE SWAP1 PUSH1 0x1 ADD SWAP1 PUSH1 0x20 ADD DUP1 DUP4 GT PUSH2 0x2A3 JUMPI DUP3 SWAP1 SUB PUSH1 0x1F AND DUP3 ADD SWAP2 JUMPDEST POP POP POP POP POP DUP2 JUMP JUMPDEST PUSH1 0x5 PUSH0 SWAP1 SLOAD SWAP1 PUSH2 0x100 EXP SWAP1 DIV PUSH20 0xFFFFFFFFFFFFFFFFFFFFFFFFFFFFFFFFFFFFFFFF AND DUP2 JUMP JUMPDEST PUSH1 0x3 SLOAD DUP2 JUMP JUMPDEST PUSH1 0x4 DUP1 SLOAD PUSH2 0x300 SWAP1 PUSH2 0x81D JUMP JUMPDEST DUP1 PUSH1 0x1F ADD PUSH1 0x20 DUP1 SWAP2 DIV MUL PUSH1 0x20 ADD PUSH1 0x40 MLOAD SWAP1 DUP2 ADD PUSH1 0x40 MSTORE DUP1 SWAP3 SWAP2 SWAP1 DUP2 DUP2 MSTORE PUSH1 0x20 ADD DUP3 DUP1 SLOAD PUSH2 0x32C SWAP1 PUSH2 0x81D JUMP JUMPDEST DUP1 ISZERO PUSH2 0x377 JUMPI DUP1 PUSH1 0x1F LT PUSH2 0x34E JUMPI PUSH2 0x100 DUP1 DUP4 SLOAD DIV MUL DUP4 MSTORE SWAP2 PUSH1 0x20 ADD SWAP2 PUSH2 0x377 JUMP JUMPDEST DUP3 ADD SWAP2 SWAP1 PUSH0 MSTORE PUSH1 0x20 PUSH0 KECCAK256 SWAP1 JUMPDEST DUP2 SLOAD DUP2 MSTORE SWAP1 PUSH1 0x1 ADD SWAP1 PUSH1 0x20 ADD DUP1 DUP4 GT PUSH2 0x35A JUMPI DUP3 SWAP1 SUB PUSH1 0x1F AND DUP3 ADD SWAP2 JUMPDEST POP POP POP POP POP DUP2 JUMP JUMPDEST PUSH0 DUP1 SLOAD SWAP1 PUSH2 0x100 EXP SWAP1 DIV PUSH20 0xFFFFFFFFFFFFFFFFFFFFFFFFFFFFFFFFFFFFFFFF AND DUP2 JUMP JUMPDEST PUSH1 0x2 SLOAD DUP2 JUMP JUMPDEST PUSH1 0x6 SLOAD DUP2 JUMP JUMPDEST PUSH1 0x7 PUSH1 0x20 MSTORE DUP1 PUSH0 MSTORE PUSH1 0x40 PUSH0 KECCAK256 PUSH0 SWAP2 POP SWAP1 POP SLOAD DUP2 JUMP JUMPDEST PUSH1 0x3 SLOAD TIMESTAMP LT PUSH2 0x407 JUMPI PUSH1 0x40 MLOAD PUSH32 0x8C379A000000000000000000000000000000000000000000000000000000000 DUP2 MSTORE PUSH1 0x4 ADD PUSH2 0x3FE SWAP1 PUSH2 0x897 JUMP JUMPDEST PUSH1 0x40 MLOAD DUP1 SWAP2 SUB SWAP1 REVERT JUMPDEST PUSH0 CALLVALUE GT PUSH2 0x449 JUMPI PUSH1 0x40 MLOAD PUSH32 0x8C379A000000000000000000000000000000000000000000000000000000000 DUP2 MSTORE PUSH1 0x4 ADD PUSH2 0x440 SWAP1 PUSH2 0x8FF JUMP JUMPDEST PUSH1 0x40 MLOAD DUP1 SWAP2 SUB SWAP1 REVERT JUMPDEST PUSH0 PUSH1 0x5 PUSH0 SWAP1 SLOAD SWAP1 PUSH2 0x100 EXP SWAP1 DIV PUSH20 0xFFFFFFFFFFFFFFFFFFFFFFFFFFFFFFFFFFFFFFFF AND PUSH20 0xFFFFFFFFFFFFFFFFFFFFFFFFFFFFFFFFFFFFFFFF AND CALLVALUE PUSH1 0x40 MLOAD PUSH2 0x48F SWAP1 PUSH2 0x94A JUMP JUMPDEST PUSH0 PUSH1 0x40 MLOAD DUP1 DUP4 SUB DUP2 DUP6 DUP8 GAS CALL SWAP3 POP POP POP RETURNDATASIZE DUP1 PUSH0 DUP2 EQ PUSH2 0x4C9 JUMPI PUSH1 0x40 MLOAD SWAP2 POP PUSH1 0x1F NOT PUSH1 0x3F RETURNDATASIZE ADD AND DUP3 ADD PUSH1 0x40 MSTORE RETURNDATASIZE DUP3 MSTORE RETURNDATASIZE PUSH0 PUSH1 0x20 DUP5 ADD RETURNDATACOPY PUSH2 0x4CE JUMP JUMPDEST PUSH1 0x60 SWAP2 POP JUMPDEST POP POP SWAP1 POP DUP1 PUSH2 0x512 JUMPI PUSH1 0x40 MLOAD PUSH32 0x8C379A000000000000000000000000000000000000000000000000000000000 DUP2 MSTORE PUSH1 0x4 ADD PUSH2 0x509 SWAP1 PUSH2 0x9A8 JUMP JUMPDEST PUSH1 0x40 MLOAD DUP1 SWAP2 SUB SWAP1 REVERT JUMPDEST CALLVALUE PUSH1 0x7 PUSH0 CALLER PUSH20 0xFFFFFFFFFFFFFFFFFFFFFFFFFFFFFFFFFFFFFFFF AND PUSH20 0xFFFFFFFFFFFFFFFFFFFFFFFFFFFFFFFFFFFFFFFF AND DUP2 MSTORE PUSH1 0x20 ADD SWAP1 DUP2 MSTORE PUSH1 0x20 ADD PUSH0 KECCAK256 PUSH0 DUP3 DUP3 SLOAD PUSH2 0x55E SWAP2 SWAP1 PUSH2 0x9F3 JUMP JUMPDEST SWAP3 POP POP DUP2 SWAP1 SSTORE POP CALLVALUE PUSH1 0x6 PUSH0 DUP3 DUP3 SLOAD PUSH2 0x576 SWAP2 SWAP1 PUSH2 0x9F3 JUMP JUMPDEST SWAP3 POP POP DUP2 SWAP1 SSTORE POP POP JUMP JUMPDEST PUSH0 DUP1 PUSH1 0x7 PUSH0 DUP5 PUSH20 0xFFFFFFFFFFFFFFFFFFFFFFFFFFFFFFFFFFFFFFFF AND PUSH20 0xFFFFFFFFFFFFFFFFFFFFFFFFFFFFFFFFFFFFFFFF AND DUP2 MSTORE PUSH1 0x20 ADD SWAP1 DUP2 MSTORE PUSH1 0x20 ADD PUSH0 KECCAK256 SLOAD GT PUSH2 0x600 JUMPI PUSH1 0x40 MLOAD PUSH32 0x8C379A000000000000000000000000000000000000000000000000000000000 DUP2 MSTORE PUSH1 0x4 ADD PUSH2 0x5F7 SWAP1 PUSH2 0xA70 JUMP JUMPDEST PUSH1 0x40 MLOAD DUP1 SWAP2 SUB SWAP1 REVERT JUMPDEST PUSH1 0x7 PUSH0 DUP4 PUSH20 0xFFFFFFFFFFFFFFFFFFFFFFFFFFFFFFFFFFFFFFFF AND PUSH20 0xFFFFFFFFFFFFFFFFFFFFFFFFFFFFFFFFFFFFFFFF AND DUP2 MSTORE PUSH1 0x20 ADD SWAP1 DUP2 MSTORE PUSH1 0x20 ADD PUSH0 KECCAK256 SLOAD SWAP1 POP SWAP2 SWAP1 POP JUMP JUMPDEST PUSH0 DUP2 MLOAD SWAP1 POP SWAP2 SWAP1 POP JUMP JUMPDEST PUSH0 DUP3 DUP3 MSTORE PUSH1 0x20 DUP3 ADD SWAP1 POP SWAP3 SWAP2 POP POP JUMP JUMPDEST DUP3 DUP2 DUP4 MCOPY PUSH0 DUP4 DUP4 ADD MSTORE POP POP POP JUMP JUMPDEST PUSH0 PUSH1 0x1F NOT PUSH1 0x1F DUP4 ADD AND SWAP1 POP SWAP2 SWAP1 POP JUMP JUMPDEST PUSH0 PUSH2 0x687 DUP3 PUSH2 0x645 JUMP JUMPDEST PUSH2 0x691 DUP2 DUP6 PUSH2 0x64F JUMP JUMPDEST SWAP4 POP PUSH2 0x6A1 DUP2 DUP6 PUSH1 0x20 DUP7 ADD PUSH2 0x65F JUMP JUMPDEST PUSH2 0x6AA DUP2 PUSH2 0x66D JUMP JUMPDEST DUP5 ADD SWAP2 POP POP SWAP3 SWAP2 POP POP JUMP JUMPDEST PUSH0 PUSH1 0x20 DUP3 ADD SWAP1 POP DUP2 DUP2 SUB PUSH0 DUP4 ADD MSTORE PUSH2 0x6CD DUP2 DUP5 PUSH2 0x67D JUMP JUMPDEST SWAP1 POP SWAP3 SWAP2 POP POP JUMP JUMPDEST PUSH0 PUSH20 0xFFFFFFFFFFFFFFFFFFFFFFFFFFFFFFFFFFFFFFFF DUP3 AND SWAP1 POP SWAP2 SWAP1 POP JUMP JUMPDEST PUSH0 PUSH2 0x6FE DUP3 PUSH2 0x6D5 JUMP JUMPDEST SWAP1 POP SWAP2 SWAP1 POP JUMP JUMPDEST PUSH2 0x70E DUP2 PUSH2 0x6F4 JUMP JUMPDEST DUP3 MSTORE POP POP JUMP JUMPDEST PUSH0 PUSH1 0x20 DUP3 ADD SWAP1 POP PUSH2 0x727 PUSH0 DUP4 ADD DUP5 PUSH2 0x705 JUMP JUMPDEST SWAP3 SWAP2 POP POP JUMP JUMPDEST PUSH0 DUP2 SWAP1 POP SWAP2 SWAP1 POP JUMP JUMPDEST PUSH2 0x73F DUP2 PUSH2 0x72D JUMP JUMPDEST DUP3 MSTORE POP POP JUMP JUMPDEST PUSH0 PUSH1 0x20 DUP3 ADD SWAP1 POP PUSH2 0x758 PUSH0 DUP4 ADD DUP5 PUSH2 0x736 JUMP JUMPDEST SWAP3 SWAP2 POP POP JUMP JUMPDEST PUSH0 PUSH2 0x768 DUP3 PUSH2 0x6D5 JUMP JUMPDEST SWAP1 POP SWAP2 SWAP1 POP JUMP JUMPDEST PUSH2 0x778 DUP2 PUSH2 0x75E JUMP JUMPDEST DUP3 MSTORE POP POP JUMP JUMPDEST PUSH0 PUSH1 0x20 DUP3 ADD SWAP1 POP PUSH2 0x791 PUSH0 DUP4 ADD DUP5 PUSH2 0x76F JUMP JUMPDEST SWAP3 SWAP2 POP POP JUMP JUMPDEST PUSH0 DUP1 REVERT JUMPDEST PUSH2 0x7A4 DUP2 PUSH2 0x75E JUMP JUMPDEST DUP2 EQ PUSH2 0x7AE JUMPI PUSH0 DUP1 REVERT JUMPDEST POP JUMP JUMPDEST PUSH0 DUP2 CALLDATALOAD SWAP1 POP PUSH2 0x7BF DUP2 PUSH2 0x79B JUMP JUMPDEST SWAP3 SWAP2 POP POP JUMP JUMPDEST PUSH0 PUSH1 0x20 DUP3 DUP5 SUB SLT ISZERO PUSH2 0x7DA JUMPI PUSH2 0x7D9 PUSH2 0x797 JUMP JUMPDEST JUMPDEST PUSH0 PUSH2 0x7E7 DUP5 DUP3 DUP6 ADD PUSH2 0x7B1 JUMP JUMPDEST SWAP2 POP POP SWAP3 SWAP2 POP POP JUMP JUMPDEST PUSH32 0x4E487B7100000000000000000000000000000000000000000000000000000000 PUSH0 MSTORE PUSH1 0x22 PUSH1 0x4 MSTORE PUSH1 0x24 PUSH0 REVERT JUMPDEST PUSH0 PUSH1 0x2 DUP3 DIV SWAP1 POP PUSH1 0x1 DUP3 AND DUP1 PUSH2 0x834 JUMPI PUSH1 0x7F DUP3 AND SWAP2 POP JUMPDEST PUSH1 0x20 DUP3 LT DUP2 SUB PUSH2 0x847 JUMPI PUSH2 0x846 PUSH2 0x7F0 JUMP JUMPDEST JUMPDEST POP SWAP2 SWAP1 POP JUMP JUMPDEST PUSH32 0x546869732066756E6472616973696E67206973206F7665720000000000000000 PUSH0 DUP3 ADD MSTORE POP JUMP JUMPDEST PUSH0 PUSH2 0x881 PUSH1 0x18 DUP4 PUSH2 0x64F JUMP JUMPDEST SWAP2 POP PUSH2 0x88C DUP3 PUSH2 0x84D JUMP JUMPDEST PUSH1 0x20 DUP3 ADD SWAP1 POP SWAP2 SWAP1 POP JUMP JUMPDEST PUSH0 PUSH1 0x20 DUP3 ADD SWAP1 POP DUP2 DUP2 SUB PUSH0 DUP4 ADD MSTORE PUSH2 0x8AE DUP2 PUSH2 0x875 JUMP JUMPDEST SWAP1 POP SWAP2 SWAP1 POP JUMP JUMPDEST PUSH32 0x446F6E6174696F6E206D7573742062652067726561746572207468616E203000 PUSH0 DUP3 ADD MSTORE POP JUMP JUMPDEST PUSH0 PUSH2 0x8E9 PUSH1 0x1F DUP4 PUSH2 0x64F JUMP JUMPDEST SWAP2 POP PUSH2 0x8F4 DUP3 PUSH2 0x8B5 JUMP JUMPDEST PUSH1 0x20 DUP3 ADD SWAP1 POP SWAP2 SWAP1 POP JUMP JUMPDEST PUSH0 PUSH1 0x20 DUP3 ADD SWAP1 POP DUP2 DUP2 SUB PUSH0 DUP4 ADD MSTORE PUSH2 0x916 DUP2 PUSH2 0x8DD JUMP JUMPDEST SWAP1 POP SWAP2 SWAP1 POP JUMP JUMPDEST PUSH0 DUP2 SWAP1 POP SWAP3 SWAP2 POP POP JUMP JUMPDEST POP JUMP JUMPDEST PUSH0 PUSH2 0x935 PUSH0 DUP4 PUSH2 0x91D JUMP JUMPDEST SWAP2 POP PUSH2 0x940 DUP3 PUSH2 0x927 JUMP JUMPDEST PUSH0 DUP3 ADD SWAP1 POP SWAP2 SWAP1 POP JUMP JUMPDEST PUSH0 PUSH2 0x954 DUP3 PUSH2 0x92A JUMP JUMPDEST SWAP2 POP DUP2 SWAP1 POP SWAP2 SWAP1 POP JUMP JUMPDEST PUSH32 0x4661696C656420746F2073656E64206D6F6E6579000000000000000000000000 PUSH0 DUP3 ADD MSTORE POP JUMP JUMPDEST PUSH0 PUSH2 0x992 PUSH1 0x14 DUP4 PUSH2 0x64F JUMP JUMPDEST SWAP2 POP PUSH2 0x99D DUP3 PUSH2 0x95E JUMP JUMPDEST PUSH1 0x20 DUP3 ADD SWAP1 POP SWAP2 SWAP1 POP JUMP JUMPDEST PUSH0 PUSH1 0x20 DUP3 ADD SWAP1 POP DUP2 DUP2 SUB PUSH0 DUP4 ADD MSTORE PUSH2 0x9BF DUP2 PUSH2 0x986 JUMP JUMPDEST SWAP1 POP SWAP2 SWAP1 POP JUMP JUMPDEST PUSH32 0x4E487B7100000000000000000000000000000000000000000000000000000000 PUSH0 MSTORE PUSH1 0x11 PUSH1 0x4 MSTORE PUSH1 0x24 PUSH0 REVERT JUMPDEST PUSH0 PUSH2 0x9FD DUP3 PUSH2 0x72D JUMP JUMPDEST SWAP2 POP PUSH2 0xA08 DUP4 PUSH2 0x72D JUMP JUMPDEST SWAP3 POP DUP3 DUP3 ADD SWAP1 POP DUP1 DUP3 GT ISZERO PUSH2 0xA20 JUMPI PUSH2 0xA1F PUSH2 0x9C6 JUMP JUMPDEST JUMPDEST SWAP3 SWAP2 POP POP JUMP JUMPDEST PUSH32 0x4E6F204461746100000000000000000000000000000000000000000000000000 PUSH0 DUP3 ADD MSTORE POP JUMP JUMPDEST PUSH0 PUSH2 0xA5A PUSH1 0x7 DUP4 PUSH2 0x64F JUMP JUMPDEST SWAP2 POP PUSH2 0xA65 DUP3 PUSH2 0xA26 JUMP JUMPDEST PUSH1 0x20 DUP3 ADD SWAP1 POP SWAP2 SWAP1 POP JUMP JUMPDEST PUSH0 PUSH1 0x20 DUP3 ADD SWAP1 POP DUP2 DUP2 SUB PUSH0 DUP4 ADD MSTORE PUSH2 0xA87 DUP2 PUSH2 0xA4E JUMP JUMPDEST SWAP1 POP SWAP2 SWAP1 POP JUMP INVALID LOG2 PUSH5 0x6970667358 0x22 SLT KECCAK256 0xD7 SWAP15 PUSH1 0x47 PUSH8 0xCB5EB557911CF234 LT SDIV EXP PUSH4 0x972341A2 PUSH12 0x8854FA938E44BCE9BEF06473 PUSH16 0x6C634300081900330000000000000000 "
		},
		"gasEstimates": {
			"creation": {
				"codeDepositCost": "551200",
				"executionCost": "infinite",
				"totalCost": "infinite"
			},
			"external": {
				"beneficiary()": "2531",
				"description()": "infinite",
				"donate()": "infinite",
				"donations(address)": "2846",
				"finishTime()": "2470",
				"getInfo(address)": "5128",
				"name()": "infinite",
				"owner()": "2594",
				"raisedAmount()": "2447",
				"targetAmount()": "2425"
			}
		},
		"methodIdentifiers": {
			"beneficiary()": "38af3eed",
			"description()": "7284e416",
			"donate()": "ed88c68e",
			"donations(address)": "cc6cb19a",
			"finishTime()": "5958611e",
			"getInfo(address)": "ffdd5cf1",
			"name()": "06fdde03",
			"owner()": "8da5cb5b",
			"raisedAmount()": "c59ee1dc",
			"targetAmount()": "953b8fb8"
		}
	},
	"abi": [
		{
			"inputs": [
				{
					"internalType": "string",
					"name": "_name",
					"type": "string"
				},
				{
					"internalType": "uint256",
					"name": "_targetAmount",
					"type": "uint256"
				},
				{
					"internalType": "uint256",
					"name": "_finishTime",
					"type": "uint256"
				},
				{
					"internalType": "string",
					"name": "_description",
					"type": "string"
				},
				{
					"internalType": "address payable",
					"name": "_beneficiary",
					"type": "address"
				}
			],
			"stateMutability": "nonpayable",
			"type": "constructor"
		},
		{
			"inputs": [],
			"name": "beneficiary",
			"outputs": [
				{
					"internalType": "address payable",
					"name": "",
					"type": "address"
				}
			],
			"stateMutability": "view",
			"type": "function"
		},
		{
			"inputs": [],
			"name": "description",
			"outputs": [
				{
					"internalType": "string",
					"name": "",
					"type": "string"
				}
			],
			"stateMutability": "view",
			"type": "function"
		},
		{
			"inputs": [],
			"name": "donate",
			"outputs": [],
			"stateMutability": "payable",
			"type": "function"
		},
		{
			"inputs": [
				{
					"internalType": "address",
					"name": "",
					"type": "address"
				}
			],
			"name": "donations",
			"outputs": [
				{
					"internalType": "uint256",
					"name": "",
					"type": "uint256"
				}
			],
			"stateMutability": "view",
			"type": "function"
		},
		{
			"inputs": [],
			"name": "finishTime",
			"outputs": [
				{
					"internalType": "uint256",
					"name": "",
					"type": "uint256"
				}
			],
			"stateMutability": "view",
			"type": "function"
		},
		{
			"inputs": [
				{
					"internalType": "address",
					"name": "_address",
					"type": "address"
				}
			],
			"name": "getInfo",
			"outputs": [
				{
					"internalType": "uint256",
					"name": "",
					"type": "uint256"
				}
			],
			"stateMutability": "view",
			"type": "function"
		},
		{
			"inputs": [],
			"name": "name",
			"outputs": [
				{
					"internalType": "string",
					"name": "",
					"type": "string"
				}
			],
			"stateMutability": "view",
			"type": "function"
		},
		{
			"inputs": [],
			"name": "owner",
			"outputs": [
				{
					"internalType": "address",
					"name": "",
					"type": "address"
				}
			],
			"stateMutability": "view",
			"type": "function"
		},
		{
			"inputs": [],
			"name": "raisedAmount",
			"outputs": [
				{
					"internalType": "uint256",
					"name": "",
					"type": "uint256"
				}
			],
			"stateMutability": "view",
			"type": "function"
		},
		{
			"inputs": [],
			"name": "targetAmount",
			"outputs": [
				{
					"internalType": "uint256",
					"name": "",
					"type": "uint256"
				}
			],
			"stateMutability": "view",
			"type": "function"
		}
	]
}